{
  "contractName": "newCompany",
  "abi": [
    {
      "anonymous": false,
      "inputs": [
        {
          "indexed": true,
          "internalType": "address",
          "name": "owner",
          "type": "address"
        },
        {
          "indexed": true,
          "internalType": "address",
          "name": "approved",
          "type": "address"
        },
        {
          "indexed": true,
          "internalType": "uint256",
          "name": "tokenId",
          "type": "uint256"
        }
      ],
      "name": "Approval",
      "type": "event"
    },
    {
      "anonymous": false,
      "inputs": [
        {
          "indexed": true,
          "internalType": "address",
          "name": "owner",
          "type": "address"
        },
        {
          "indexed": true,
          "internalType": "address",
          "name": "operator",
          "type": "address"
        },
        {
          "indexed": false,
          "internalType": "bool",
          "name": "approved",
          "type": "bool"
        }
      ],
      "name": "ApprovalForAll",
      "type": "event"
    },
    {
      "anonymous": false,
      "inputs": [
        {
          "indexed": true,
          "internalType": "address",
          "name": "previousOwner",
          "type": "address"
        },
        {
          "indexed": true,
          "internalType": "address",
          "name": "newOwner",
          "type": "address"
        }
      ],
      "name": "OwnershipTransferred",
      "type": "event"
    },
    {
      "anonymous": false,
      "inputs": [
        {
          "indexed": true,
          "internalType": "address",
          "name": "from",
          "type": "address"
        },
        {
          "indexed": true,
          "internalType": "address",
          "name": "to",
          "type": "address"
        },
        {
          "indexed": true,
          "internalType": "uint256",
          "name": "tokenId",
          "type": "uint256"
        }
      ],
      "name": "Transfer",
      "type": "event"
    },
    {
      "inputs": [
        {
          "internalType": "address",
          "name": "to",
          "type": "address"
        },
        {
          "internalType": "uint256",
          "name": "tokenId",
          "type": "uint256"
        }
      ],
      "name": "approve",
      "outputs": [],
      "stateMutability": "nonpayable",
      "type": "function"
    },
    {
      "inputs": [
        {
          "internalType": "address",
          "name": "owner",
          "type": "address"
        }
      ],
      "name": "balanceOf",
      "outputs": [
        {
          "internalType": "uint256",
          "name": "",
          "type": "uint256"
        }
      ],
      "stateMutability": "view",
      "type": "function",
      "constant": true
    },
    {
      "inputs": [
        {
          "internalType": "uint256",
          "name": "tokenId",
          "type": "uint256"
        }
      ],
      "name": "getApproved",
      "outputs": [
        {
          "internalType": "address",
          "name": "",
          "type": "address"
        }
      ],
      "stateMutability": "view",
      "type": "function",
      "constant": true
    },
    {
      "inputs": [
        {
          "internalType": "address",
          "name": "owner",
          "type": "address"
        },
        {
          "internalType": "address",
          "name": "operator",
          "type": "address"
        }
      ],
      "name": "isApprovedForAll",
      "outputs": [
        {
          "internalType": "bool",
          "name": "",
          "type": "bool"
        }
      ],
      "stateMutability": "view",
      "type": "function",
      "constant": true
    },
    {
      "inputs": [],
      "name": "name",
      "outputs": [
        {
          "internalType": "string",
          "name": "",
          "type": "string"
        }
      ],
      "stateMutability": "view",
      "type": "function",
      "constant": true
    },
    {
      "inputs": [],
      "name": "owner",
      "outputs": [
        {
          "internalType": "address",
          "name": "",
          "type": "address"
        }
      ],
      "stateMutability": "view",
      "type": "function",
      "constant": true
    },
    {
      "inputs": [
        {
          "internalType": "uint256",
          "name": "tokenId",
          "type": "uint256"
        }
      ],
      "name": "ownerOf",
      "outputs": [
        {
          "internalType": "address",
          "name": "",
          "type": "address"
        }
      ],
      "stateMutability": "view",
      "type": "function",
      "constant": true
    },
    {
      "inputs": [],
      "name": "renounceOwnership",
      "outputs": [],
      "stateMutability": "nonpayable",
      "type": "function"
    },
    {
      "inputs": [
        {
          "internalType": "address",
          "name": "from",
          "type": "address"
        },
        {
          "internalType": "address",
          "name": "to",
          "type": "address"
        },
        {
          "internalType": "uint256",
          "name": "tokenId",
          "type": "uint256"
        }
      ],
      "name": "safeTransferFrom",
      "outputs": [],
      "stateMutability": "nonpayable",
      "type": "function"
    },
    {
      "inputs": [
        {
          "internalType": "address",
          "name": "from",
          "type": "address"
        },
        {
          "internalType": "address",
          "name": "to",
          "type": "address"
        },
        {
          "internalType": "uint256",
          "name": "tokenId",
          "type": "uint256"
        },
        {
          "internalType": "bytes",
          "name": "_data",
          "type": "bytes"
        }
      ],
      "name": "safeTransferFrom",
      "outputs": [],
      "stateMutability": "nonpayable",
      "type": "function"
    },
    {
      "inputs": [
        {
          "internalType": "address",
          "name": "operator",
          "type": "address"
        },
        {
          "internalType": "bool",
          "name": "approved",
          "type": "bool"
        }
      ],
      "name": "setApprovalForAll",
      "outputs": [],
      "stateMutability": "nonpayable",
      "type": "function"
    },
    {
      "inputs": [
        {
          "internalType": "bytes4",
          "name": "interfaceId",
          "type": "bytes4"
        }
      ],
      "name": "supportsInterface",
      "outputs": [
        {
          "internalType": "bool",
          "name": "",
          "type": "bool"
        }
      ],
      "stateMutability": "view",
      "type": "function",
      "constant": true
    },
    {
      "inputs": [],
      "name": "symbol",
      "outputs": [
        {
          "internalType": "string",
          "name": "",
          "type": "string"
        }
      ],
      "stateMutability": "view",
      "type": "function",
      "constant": true
    },
    {
      "inputs": [
        {
          "internalType": "uint256",
          "name": "tokenId",
          "type": "uint256"
        }
      ],
      "name": "tokenURI",
      "outputs": [
        {
          "internalType": "string",
          "name": "",
          "type": "string"
        }
      ],
      "stateMutability": "view",
      "type": "function",
      "constant": true
    },
    {
      "inputs": [
        {
          "internalType": "address",
          "name": "from",
          "type": "address"
        },
        {
          "internalType": "address",
          "name": "to",
          "type": "address"
        },
        {
          "internalType": "uint256",
          "name": "tokenId",
          "type": "uint256"
        }
      ],
      "name": "transferFrom",
      "outputs": [],
      "stateMutability": "nonpayable",
      "type": "function"
    },
    {
      "inputs": [
        {
          "internalType": "address",
          "name": "newOwner",
          "type": "address"
        }
      ],
      "name": "transferOwnership",
      "outputs": [],
      "stateMutability": "nonpayable",
      "type": "function"
    },
    {
      "inputs": [],
      "name": "initialize",
      "outputs": [],
      "stateMutability": "nonpayable",
      "type": "function"
    },
    {
      "inputs": [
        {
          "internalType": "string",
          "name": "_newBaseURI",
          "type": "string"
        }
      ],
      "name": "setBaseURI",
      "outputs": [],
      "stateMutability": "nonpayable",
      "type": "function"
    },
    {
      "inputs": [],
      "name": "getAllOnSale",
      "outputs": [
        {
          "components": [
            {
              "internalType": "uint256",
              "name": "id",
              "type": "uint256"
            },
            {
              "internalType": "uint256",
              "name": "price",
              "type": "uint256"
            },
            {
              "internalType": "string",
              "name": "name",
              "type": "string"
            },
            {
              "internalType": "string",
              "name": "uri",
              "type": "string"
            },
            {
              "internalType": "bool",
              "name": "sale",
              "type": "bool"
            },
            {
              "internalType": "address",
              "name": "user",
              "type": "address"
            }
          ],
          "internalType": "struct newCompany.TokenMeta[]",
          "name": "",
          "type": "tuple[]"
        }
      ],
      "stateMutability": "view",
      "type": "function",
      "constant": true
    },
    {
      "inputs": [
        {
          "internalType": "address",
          "name": "user",
          "type": "address"
        }
      ],
      "name": "getAllTokenUser",
      "outputs": [
        {
          "components": [
            {
              "internalType": "uint256",
              "name": "id",
              "type": "uint256"
            },
            {
              "internalType": "uint256",
              "name": "price",
              "type": "uint256"
            },
            {
              "internalType": "string",
              "name": "name",
              "type": "string"
            },
            {
              "internalType": "string",
              "name": "uri",
              "type": "string"
            },
            {
              "internalType": "bool",
              "name": "sale",
              "type": "bool"
            },
            {
              "internalType": "address",
              "name": "user",
              "type": "address"
            }
          ],
          "internalType": "struct newCompany.TokenMeta[]",
          "name": "",
          "type": "tuple[]"
        }
      ],
      "stateMutability": "view",
      "type": "function",
      "constant": true
    },
    {
      "inputs": [
        {
          "internalType": "uint256",
          "name": "tokenId",
          "type": "uint256"
        }
      ],
      "name": "tokenSale",
      "outputs": [
        {
          "internalType": "bool",
          "name": "",
          "type": "bool"
        }
      ],
      "stateMutability": "view",
      "type": "function",
      "constant": true
    },
    {
      "inputs": [
        {
          "internalType": "uint256",
          "name": "_tokenId",
          "type": "uint256"
        },
        {
          "internalType": "bool",
          "name": "_sale",
          "type": "bool"
        },
        {
          "internalType": "uint256",
          "name": "_price",
          "type": "uint256"
        }
      ],
      "name": "setTokenSale",
      "outputs": [],
      "stateMutability": "nonpayable",
      "type": "function"
    },
    {
      "inputs": [
        {
          "internalType": "uint256",
          "name": "_tokenId",
          "type": "uint256"
        },
        {
          "internalType": "uint256",
          "name": "_price",
          "type": "uint256"
        }
      ],
      "name": "setTokenPrice",
      "outputs": [],
      "stateMutability": "nonpayable",
      "type": "function"
    },
    {
      "inputs": [
        {
          "internalType": "uint256",
          "name": "tokenId",
          "type": "uint256"
        }
      ],
      "name": "tokenPrice",
      "outputs": [
        {
          "internalType": "uint256",
          "name": "",
          "type": "uint256"
        }
      ],
      "stateMutability": "view",
      "type": "function",
      "constant": true
    },
    {
      "inputs": [
        {
          "internalType": "uint256",
          "name": "_tokenId",
          "type": "uint256"
        }
      ],
      "name": "tokenMeta",
      "outputs": [
        {
          "components": [
            {
              "internalType": "uint256",
              "name": "id",
              "type": "uint256"
            },
            {
              "internalType": "uint256",
              "name": "price",
              "type": "uint256"
            },
            {
              "internalType": "string",
              "name": "name",
              "type": "string"
            },
            {
              "internalType": "string",
              "name": "uri",
              "type": "string"
            },
            {
              "internalType": "bool",
              "name": "sale",
              "type": "bool"
            },
            {
              "internalType": "address",
              "name": "user",
              "type": "address"
            }
          ],
          "internalType": "struct newCompany.TokenMeta",
          "name": "",
          "type": "tuple"
        }
      ],
      "stateMutability": "view",
      "type": "function",
      "constant": true
    },
    {
      "inputs": [
        {
          "internalType": "uint256",
          "name": "_tokenId",
          "type": "uint256"
        }
      ],
      "name": "purchaseToken",
      "outputs": [],
      "stateMutability": "payable",
      "type": "function",
      "payable": true
    },
    {
      "inputs": [
        {
          "internalType": "string",
          "name": "_tokenURI",
          "type": "string"
        },
        {
          "internalType": "string",
          "name": "_name",
          "type": "string"
        },
        {
          "internalType": "uint256",
          "name": "_price",
          "type": "uint256"
        },
        {
          "internalType": "bool",
          "name": "_sale",
          "type": "bool"
        }
      ],
      "name": "newToken",
      "outputs": [
        {
          "internalType": "uint256",
          "name": "",
          "type": "uint256"
        }
      ],
      "stateMutability": "nonpayable",
      "type": "function"
    },
    {
      "inputs": [
        {
          "internalType": "uint256",
          "name": "idToken",
          "type": "uint256"
        },
        {
          "internalType": "address",
          "name": "user",
          "type": "address"
        }
      ],
      "name": "giftToken",
      "outputs": [],
      "stateMutability": "nonpayable",
      "type": "function"
    }
  ],
  "bytecode": "0x608060405234801561001057600080fd5b5061512b806100206000396000f3fe6080604052600436106101b75760003560e01c80638129fc1c116100ec578063c2db2c421161008a578063d4ddce8a11610064578063d4ddce8a1461061f578063e985e9c51461065c578063eb685c4714610699578063f2fde38b146106c2576101b7565b8063c2db2c4214610589578063c87b56dd146105a5578063cba05e25146105e2576101b7565b806395d89b41116100c657806395d89b41146104cf578063a22cb465146104fa578063ac6d7ae514610523578063b88d4fde14610560576101b7565b80638129fc1c146104625780638da5cb5b1461047957806390894559146104a4576101b7565b806342842e0e116101595780636352211e116101335780636352211e146103a85780636387ede6146103e557806370a082311461040e578063715018a61461044b576101b7565b806342842e0e1461032d57806355f804b31461035657806358beb7c11461037f576101b7565b8063095ea7b311610195578063095ea7b3146102615780630ae7a3101461028a57806323b872dd146102c7578063254b4796146102f0576101b7565b806301ffc9a7146101bc57806306fdde03146101f9578063081812fc14610224575b600080fd5b3480156101c857600080fd5b506101e360048036038101906101de919061372b565b6106eb565b6040516101f09190613773565b60405180910390f35b34801561020557600080fd5b5061020e6107cd565b60405161021b9190613827565b60405180910390f35b34801561023057600080fd5b5061024b6004803603810190610246919061387f565b61085f565b60405161025891906138ed565b60405180910390f35b34801561026d57600080fd5b5061028860048036038101906102839190613934565b6108e4565b005b34801561029657600080fd5b506102b160048036038101906102ac919061387f565b6109fc565b6040516102be9190613a7b565b60405180910390f35b3480156102d357600080fd5b506102ee60048036038101906102e99190613a9d565b610be4565b005b3480156102fc57600080fd5b5061031760048036038101906103129190613c51565b610c44565b6040516103249190613cff565b60405180910390f35b34801561033957600080fd5b50610354600480360381019061034f9190613a9d565b610d51565b005b34801561036257600080fd5b5061037d60048036038101906103789190613d1a565b610d71565b005b34801561038b57600080fd5b506103a660048036038101906103a19190613d63565b610e07565b005b3480156103b457600080fd5b506103cf60048036038101906103ca919061387f565b610f10565b6040516103dc91906138ed565b60405180910390f35b3480156103f157600080fd5b5061040c60048036038101906104079190613da3565b610fc2565b005b34801561041a57600080fd5b5061043560048036038101906104309190613df6565b61109b565b6040516104429190613cff565b60405180910390f35b34801561045757600080fd5b50610460611153565b005b34801561046e57600080fd5b506104776111db565b005b34801561048557600080fd5b5061048e611376565b60405161049b91906138ed565b60405180910390f35b3480156104b057600080fd5b506104b96113a0565b6040516104c69190613f75565b60405180910390f35b3480156104db57600080fd5b506104e4611668565b6040516104f19190613827565b60405180910390f35b34801561050657600080fd5b50610521600480360381019061051c9190613f97565b6116fa565b005b34801561052f57600080fd5b5061054a6004803603810190610545919061387f565b611710565b6040516105579190613773565b60405180910390f35b34801561056c57600080fd5b5061058760048036038101906105829190614078565b611785565b005b6105a3600480360381019061059e919061387f565b6117e7565b005b3480156105b157600080fd5b506105cc60048036038101906105c7919061387f565b611a2f565b6040516105d99190613827565b60405180910390f35b3480156105ee57600080fd5b5061060960048036038101906106049190613df6565b611ad6565b6040516106169190613f75565b60405180910390f35b34801561062b57600080fd5b506106466004803603810190610641919061387f565b611dda565b6040516106539190613cff565b60405180910390f35b34801561066857600080fd5b50610683600480360381019061067e91906140fb565b611e42565b6040516106909190613773565b60405180910390f35b3480156106a557600080fd5b506106c060048036038101906106bb919061413b565b611ed6565b005b3480156106ce57600080fd5b506106e960048036038101906106e49190613df6565b611f84565b005b60007f80ac58cd000000000000000000000000000000000000000000000000000000007bffffffffffffffffffffffffffffffffffffffffffffffffffffffff1916827bffffffffffffffffffffffffffffffffffffffffffffffffffffffff191614806107b657507f5b5e139f000000000000000000000000000000000000000000000000000000007bffffffffffffffffffffffffffffffffffffffffffffffffffffffff1916827bffffffffffffffffffffffffffffffffffffffffffffffffffffffff1916145b806107c657506107c58261207c565b5b9050919050565b6060606580546107dc906141aa565b80601f0160208091040260200160405190810160405280929190818152602001828054610808906141aa565b80156108555780601f1061082a57610100808354040283529160200191610855565b820191906000526020600020905b81548152906001019060200180831161083857829003601f168201915b5050505050905090565b600061086a826120e6565b6108a9576040517f08c379a00000000000000000000000000000000000000000000000000000000081526004016108a09061424e565b60405180910390fd5b6069600083815260200190815260200160002060009054906101000a900473ffffffffffffffffffffffffffffffffffffffff169050919050565b60006108ef82610f10565b90508073ffffffffffffffffffffffffffffffffffffffff168373ffffffffffffffffffffffffffffffffffffffff161415610960576040517f08c379a0000000000000000000000000000000000000000000000000000000008152600401610957906142e0565b60405180910390fd5b8073ffffffffffffffffffffffffffffffffffffffff1661097f612152565b73ffffffffffffffffffffffffffffffffffffffff1614806109ae57506109ad816109a8612152565b611e42565b5b6109ed576040517f08c379a00000000000000000000000000000000000000000000000000000000081526004016109e490614372565b60405180910390fd5b6109f7838361215a565b505050565b610a046135ce565b610a0d826120e6565b610a1657600080fd5b60fc60008381526020019081526020016000206040518060c00160405290816000820154815260200160018201548152602001600282018054610a58906141aa565b80601f0160208091040260200160405190810160405280929190818152602001828054610a84906141aa565b8015610ad15780601f10610aa657610100808354040283529160200191610ad1565b820191906000526020600020905b815481529060010190602001808311610ab457829003601f168201915b50505050508152602001600382018054610aea906141aa565b80601f0160208091040260200160405190810160405280929190818152602001828054610b16906141aa565b8015610b635780601f10610b3857610100808354040283529160200191610b63565b820191906000526020600020905b815481529060010190602001808311610b4657829003601f168201915b505050505081526020016004820160009054906101000a900460ff161515151581526020016004820160019054906101000a900473ffffffffffffffffffffffffffffffffffffffff1673ffffffffffffffffffffffffffffffffffffffff1673ffffffffffffffffffffffffffffffffffffffff16815250509050919050565b610bf5610bef612152565b82612213565b610c34576040517f08c379a0000000000000000000000000000000000000000000000000000000008152600401610c2b90614404565b60405180910390fd5b610c3f8383836122f1565b505050565b6000610c4e612152565b73ffffffffffffffffffffffffffffffffffffffff16610c6c611376565b73ffffffffffffffffffffffffffffffffffffffff1614610cc2576040517f08c379a0000000000000000000000000000000000000000000000000000000008152600401610cb990614470565b60405180910390fd5b60008311610ccf57600080fd5b610cd960fb61254d565b6000610ce560fb612563565b9050610cf13382612571565b60006040518060c0016040528083815260200186815260200187815260200188815260200185151581526020013373ffffffffffffffffffffffffffffffffffffffff168152509050610d44828261273f565b8192505050949350505050565b610d6c83838360405180602001604052806000815250611785565b505050565b610d79612152565b73ffffffffffffffffffffffffffffffffffffffff16610d97611376565b73ffffffffffffffffffffffffffffffffffffffff1614610ded576040517f08c379a0000000000000000000000000000000000000000000000000000000008152600401610de490614470565b60405180910390fd5b8060fd9080519060200190610e0392919061361c565b5050565b3373ffffffffffffffffffffffffffffffffffffffff16610e2783610f10565b73ffffffffffffffffffffffffffffffffffffffff1614610e7d576040517f08c379a0000000000000000000000000000000000000000000000000000000008152600401610e74906144dc565b60405180910390fd5b610e883382846122f1565b8060fc600084815260200190815260200160002060040160016101000a81548173ffffffffffffffffffffffffffffffffffffffff021916908373ffffffffffffffffffffffffffffffffffffffff160217905550600060fc600084815260200190815260200160002060040160006101000a81548160ff0219169083151502179055505050565b6000806067600084815260200190815260200160002060009054906101000a900473ffffffffffffffffffffffffffffffffffffffff169050600073ffffffffffffffffffffffffffffffffffffffff168173ffffffffffffffffffffffffffffffffffffffff161415610fb9576040517f08c379a0000000000000000000000000000000000000000000000000000000008152600401610fb09061456e565b60405180910390fd5b80915050919050565b610fcb836120e6565b61100a576040517f08c379a000000000000000000000000000000000000000000000000000000000815260040161100190614600565b60405180910390fd5b6000811161101757600080fd5b61101f612152565b73ffffffffffffffffffffffffffffffffffffffff1661103e84610f10565b73ffffffffffffffffffffffffffffffffffffffff161461105e57600080fd5b8160fc600085815260200190815260200160002060040160006101000a81548160ff0219169083151502179055506110968382611ed6565b505050565b60008073ffffffffffffffffffffffffffffffffffffffff168273ffffffffffffffffffffffffffffffffffffffff16141561110c576040517f08c379a000000000000000000000000000000000000000000000000000000000815260040161110390614692565b60405180910390fd5b606860008373ffffffffffffffffffffffffffffffffffffffff1673ffffffffffffffffffffffffffffffffffffffff168152602001908152602001600020549050919050565b61115b612152565b73ffffffffffffffffffffffffffffffffffffffff16611179611376565b73ffffffffffffffffffffffffffffffffffffffff16146111cf576040517f08c379a00000000000000000000000000000000000000000000000000000000081526004016111c690614470565b60405180910390fd5b6111d96000612868565b565b600060019054906101000a900460ff1680611201575060008054906101000a900460ff16155b611240576040517f08c379a000000000000000000000000000000000000000000000000000000000815260040161123790614724565b60405180910390fd5b60008060019054906101000a900460ff161590508015611290576001600060016101000a81548160ff02191690831515021790555060016000806101000a81548160ff0219169083151502179055505b61129861292e565b6112a0612a17565b6113146040518060400160405280600781526020017f434f4d50414e59000000000000000000000000000000000000000000000000008152506040518060400160405280600481526020017f434d502000000000000000000000000000000000000000000000000000000000815250612af8565b6113526040518060400160405280600881526020017f796f757220757269000000000000000000000000000000000000000000000000815250610d71565b80156113735760008060016101000a81548160ff0219169083151502179055505b50565b6000609760009054906101000a900473ffffffffffffffffffffffffffffffffffffffff16905090565b606060006113ae60fb612563565b67ffffffffffffffff8111156113c7576113c6613afa565b5b60405190808252806020026020018201604052801561140057816020015b6113ed6135ce565b8152602001906001900390816113e55790505b509050600080600190505b600161141760fb612563565b6114219190614773565b81101561165f576001151560fc600083815260200190815260200160002060040160009054906101000a900460ff161515141561164c5760fc60008281526020019081526020016000206040518060c0016040529081600082015481526020016001820154815260200160028201805461149a906141aa565b80601f01602080910402602001604051908101604052809291908181526020018280546114c6906141aa565b80156115135780601f106114e857610100808354040283529160200191611513565b820191906000526020600020905b8154815290600101906020018083116114f657829003601f168201915b5050505050815260200160038201805461152c906141aa565b80601f0160208091040260200160405190810160405280929190818152602001828054611558906141aa565b80156115a55780601f1061157a576101008083540402835291602001916115a5565b820191906000526020600020905b81548152906001019060200180831161158857829003601f168201915b505050505081526020016004820160009054906101000a900460ff161515151581526020016004820160019054906101000a900473ffffffffffffffffffffffffffffffffffffffff1673ffffffffffffffffffffffffffffffffffffffff1673ffffffffffffffffffffffffffffffffffffffff1681525050838381518110611632576116316147c9565b5b60200260200101819052508180611648906147f8565b9250505b8080611657906147f8565b91505061140b565b50819250505090565b606060668054611677906141aa565b80601f01602080910402602001604051908101604052809291908181526020018280546116a3906141aa565b80156116f05780601f106116c5576101008083540402835291602001916116f0565b820191906000526020600020905b8154815290600101906020018083116116d357829003601f168201915b5050505050905090565b61170c611705612152565b8383612bed565b5050565b600061171b826120e6565b61175a576040517f08c379a0000000000000000000000000000000000000000000000000000000008152600401611751906148b3565b60405180910390fd5b60fc600083815260200190815260200160002060040160009054906101000a900460ff169050919050565b611796611790612152565b83612213565b6117d5576040517f08c379a00000000000000000000000000000000000000000000000000000000081526004016117cc90614404565b60405180910390fd5b6117e184848484612d5a565b50505050565b600260c954141561182d576040517f08c379a00000000000000000000000000000000000000000000000000000000081526004016118249061491f565b60405180910390fd5b600260c981905550600073ffffffffffffffffffffffffffffffffffffffff163373ffffffffffffffffffffffffffffffffffffffff16141580156118a6575061187681610f10565b73ffffffffffffffffffffffffffffffffffffffff163373ffffffffffffffffffffffffffffffffffffffff1614155b6118af57600080fd5b60fc6000828152602001908152602001600020600101543410156118d257600080fd5b60fc600082815260200190815260200160002060040160009054906101000a900460ff16611935576040517f08c379a000000000000000000000000000000000000000000000000000000000815260040161192c9061498b565b60405180910390fd5b600061194082610f10565b90508073ffffffffffffffffffffffffffffffffffffffff166108fc349081150290604051600060405180830381858888f19350505050158015611988573d6000803e3d6000fd5b506119948160016116fa565b61199f8133846122f1565b600060fc600084815260200190815260200160002060040160006101000a81548160ff0219169083151502179055503360fc600084815260200190815260200160002060040160016101000a81548173ffffffffffffffffffffffffffffffffffffffff021916908373ffffffffffffffffffffffffffffffffffffffff16021790555050600160c98190555050565b6060611a3a826120e6565b611a79576040517f08c379a0000000000000000000000000000000000000000000000000000000008152600401611a7090614a1d565b60405180910390fd5b6000611a83612db6565b90506000815111611aa35760405180602001604052806000815250611ace565b80611aad84612e48565b604051602001611abe929190614a79565b6040516020818303038152906040525b915050919050565b60606000611ae460fb612563565b67ffffffffffffffff811115611afd57611afc613afa565b5b604051908082528060200260200182016040528015611b3657816020015b611b236135ce565b815260200190600190039081611b1b5790505b509050600080600190505b6001611b4d60fb612563565b611b579190614773565b811015611dcf578473ffffffffffffffffffffffffffffffffffffffff1660fc600083815260200190815260200160002060040160019054906101000a900473ffffffffffffffffffffffffffffffffffffffff1673ffffffffffffffffffffffffffffffffffffffff161415611dbc5760fc60008281526020019081526020016000206040518060c00160405290816000820154815260200160018201548152602001600282018054611c0a906141aa565b80601f0160208091040260200160405190810160405280929190818152602001828054611c36906141aa565b8015611c835780601f10611c5857610100808354040283529160200191611c83565b820191906000526020600020905b815481529060010190602001808311611c6657829003601f168201915b50505050508152602001600382018054611c9c906141aa565b80601f0160208091040260200160405190810160405280929190818152602001828054611cc8906141aa565b8015611d155780601f10611cea57610100808354040283529160200191611d15565b820191906000526020600020905b815481529060010190602001808311611cf857829003601f168201915b505050505081526020016004820160009054906101000a900460ff161515151581526020016004820160019054906101000a900473ffffffffffffffffffffffffffffffffffffffff1673ffffffffffffffffffffffffffffffffffffffff1673ffffffffffffffffffffffffffffffffffffffff1681525050838381518110611da257611da16147c9565b5b60200260200101819052508180611db8906147f8565b9250505b8080611dc7906147f8565b915050611b41565b508192505050919050565b6000611de5826120e6565b611e24576040517f08c379a0000000000000000000000000000000000000000000000000000000008152600401611e1b906148b3565b60405180910390fd5b60fc6000838152602001908152602001600020600101549050919050565b6000606a60008473ffffffffffffffffffffffffffffffffffffffff1673ffffffffffffffffffffffffffffffffffffffff16815260200190815260200160002060008373ffffffffffffffffffffffffffffffffffffffff1673ffffffffffffffffffffffffffffffffffffffff16815260200190815260200160002060009054906101000a900460ff16905092915050565b611edf826120e6565b611f1e576040517f08c379a0000000000000000000000000000000000000000000000000000000008152600401611f1590614b0f565b60405180910390fd5b611f26612152565b73ffffffffffffffffffffffffffffffffffffffff16611f4583610f10565b73ffffffffffffffffffffffffffffffffffffffff1614611f6557600080fd5b8060fc6000848152602001908152602001600020600101819055505050565b611f8c612152565b73ffffffffffffffffffffffffffffffffffffffff16611faa611376565b73ffffffffffffffffffffffffffffffffffffffff1614612000576040517f08c379a0000000000000000000000000000000000000000000000000000000008152600401611ff790614470565b60405180910390fd5b600073ffffffffffffffffffffffffffffffffffffffff168173ffffffffffffffffffffffffffffffffffffffff161415612070576040517f08c379a000000000000000000000000000000000000000000000000000000000815260040161206790614ba1565b60405180910390fd5b61207981612868565b50565b60007f01ffc9a7000000000000000000000000000000000000000000000000000000007bffffffffffffffffffffffffffffffffffffffffffffffffffffffff1916827bffffffffffffffffffffffffffffffffffffffffffffffffffffffff1916149050919050565b60008073ffffffffffffffffffffffffffffffffffffffff166067600084815260200190815260200160002060009054906101000a900473ffffffffffffffffffffffffffffffffffffffff1673ffffffffffffffffffffffffffffffffffffffff1614159050919050565b600033905090565b816069600083815260200190815260200160002060006101000a81548173ffffffffffffffffffffffffffffffffffffffff021916908373ffffffffffffffffffffffffffffffffffffffff160217905550808273ffffffffffffffffffffffffffffffffffffffff166121cd83610f10565b73ffffffffffffffffffffffffffffffffffffffff167f8c5be1e5ebec7d5bd14f71427d1e84f3dd0314c0f7b2291e5b200ac8c7c3b92560405160405180910390a45050565b600061221e826120e6565b61225d576040517f08c379a000000000000000000000000000000000000000000000000000000000815260040161225490614c33565b60405180910390fd5b600061226883610f10565b90508073ffffffffffffffffffffffffffffffffffffffff168473ffffffffffffffffffffffffffffffffffffffff1614806122d757508373ffffffffffffffffffffffffffffffffffffffff166122bf8461085f565b73ffffffffffffffffffffffffffffffffffffffff16145b806122e857506122e78185611e42565b5b91505092915050565b8273ffffffffffffffffffffffffffffffffffffffff1661231182610f10565b73ffffffffffffffffffffffffffffffffffffffff1614612367576040517f08c379a000000000000000000000000000000000000000000000000000000000815260040161235e90614cc5565b60405180910390fd5b600073ffffffffffffffffffffffffffffffffffffffff168273ffffffffffffffffffffffffffffffffffffffff1614156123d7576040517f08c379a00000000000000000000000000000000000000000000000000000000081526004016123ce90614d57565b60405180910390fd5b6123e2838383612fa9565b6123ed60008261215a565b6001606860008573ffffffffffffffffffffffffffffffffffffffff1673ffffffffffffffffffffffffffffffffffffffff168152602001908152602001600020600082825461243d9190614d77565b925050819055506001606860008473ffffffffffffffffffffffffffffffffffffffff1673ffffffffffffffffffffffffffffffffffffffff16815260200190815260200160002060008282546124949190614773565b92505081905550816067600083815260200190815260200160002060006101000a81548173ffffffffffffffffffffffffffffffffffffffff021916908373ffffffffffffffffffffffffffffffffffffffff160217905550808273ffffffffffffffffffffffffffffffffffffffff168473ffffffffffffffffffffffffffffffffffffffff167fddf252ad1be2c89b69c2b068fc378daa952ba7f163c4a11628f55a4df523b3ef60405160405180910390a4505050565b6001816000016000828254019250508190555050565b600081600001549050919050565b600073ffffffffffffffffffffffffffffffffffffffff168273ffffffffffffffffffffffffffffffffffffffff1614156125e1576040517f08c379a00000000000000000000000000000000000000000000000000000000081526004016125d890614df7565b60405180910390fd5b6125ea816120e6565b1561262a576040517f08c379a000000000000000000000000000000000000000000000000000000000815260040161262190614e63565b60405180910390fd5b61263660008383612fa9565b6001606860008473ffffffffffffffffffffffffffffffffffffffff1673ffffffffffffffffffffffffffffffffffffffff16815260200190815260200160002060008282546126869190614773565b92505081905550816067600083815260200190815260200160002060006101000a81548173ffffffffffffffffffffffffffffffffffffffff021916908373ffffffffffffffffffffffffffffffffffffffff160217905550808273ffffffffffffffffffffffffffffffffffffffff16600073ffffffffffffffffffffffffffffffffffffffff167fddf252ad1be2c89b69c2b068fc378daa952ba7f163c4a11628f55a4df523b3ef60405160405180910390a45050565b612748826120e6565b61275157600080fd5b612759612152565b73ffffffffffffffffffffffffffffffffffffffff1661277883610f10565b73ffffffffffffffffffffffffffffffffffffffff161461279857600080fd5b8060fc6000848152602001908152602001600020600082015181600001556020820151816001015560408201518160020190805190602001906127dc92919061361c565b5060608201518160030190805190602001906127f992919061361c565b5060808201518160040160006101000a81548160ff02191690831515021790555060a08201518160040160016101000a81548173ffffffffffffffffffffffffffffffffffffffff021916908373ffffffffffffffffffffffffffffffffffffffff1602179055509050505050565b6000609760009054906101000a900473ffffffffffffffffffffffffffffffffffffffff16905081609760006101000a81548173ffffffffffffffffffffffffffffffffffffffff021916908373ffffffffffffffffffffffffffffffffffffffff1602179055508173ffffffffffffffffffffffffffffffffffffffff168173ffffffffffffffffffffffffffffffffffffffff167f8be0079c531659141344cd1fd0a4f28419497f9722a3daafe3b4186f6b6457e060405160405180910390a35050565b600060019054906101000a900460ff1680612954575060008054906101000a900460ff16155b612993576040517f08c379a000000000000000000000000000000000000000000000000000000000815260040161298a90614724565b60405180910390fd5b60008060019054906101000a900460ff1615905080156129e3576001600060016101000a81548160ff02191690831515021790555060016000806101000a81548160ff0219169083151502179055505b6129eb612fae565b6129f3613087565b8015612a145760008060016101000a81548160ff0219169083151502179055505b50565b600060019054906101000a900460ff1680612a3d575060008054906101000a900460ff16155b612a7c576040517f08c379a0000000000000000000000000000000000000000000000000000000008152600401612a7390614724565b60405180910390fd5b60008060019054906101000a900460ff161590508015612acc576001600060016101000a81548160ff02191690831515021790555060016000806101000a81548160ff0219169083151502179055505b612ad4613170565b8015612af55760008060016101000a81548160ff0219169083151502179055505b50565b600060019054906101000a900460ff1680612b1e575060008054906101000a900460ff16155b612b5d576040517f08c379a0000000000000000000000000000000000000000000000000000000008152600401612b5490614724565b60405180910390fd5b60008060019054906101000a900460ff161590508015612bad576001600060016101000a81548160ff02191690831515021790555060016000806101000a81548160ff0219169083151502179055505b612bb5612fae565b612bbd613251565b612bc7838361332a565b8015612be85760008060016101000a81548160ff0219169083151502179055505b505050565b8173ffffffffffffffffffffffffffffffffffffffff168373ffffffffffffffffffffffffffffffffffffffff161415612c5c576040517f08c379a0000000000000000000000000000000000000000000000000000000008152600401612c5390614ecf565b60405180910390fd5b80606a60008573ffffffffffffffffffffffffffffffffffffffff1673ffffffffffffffffffffffffffffffffffffffff16815260200190815260200160002060008473ffffffffffffffffffffffffffffffffffffffff1673ffffffffffffffffffffffffffffffffffffffff16815260200190815260200160002060006101000a81548160ff0219169083151502179055508173ffffffffffffffffffffffffffffffffffffffff168373ffffffffffffffffffffffffffffffffffffffff167f17307eab39ab6107e8899845ad3d59bd9653f200f220920489ca2b5937696c3183604051612d4d9190613773565b60405180910390a3505050565b612d658484846122f1565b612d7184848484613433565b612db0576040517f08c379a0000000000000000000000000000000000000000000000000000000008152600401612da790614f61565b60405180910390fd5b50505050565b606060fd8054612dc5906141aa565b80601f0160208091040260200160405190810160405280929190818152602001828054612df1906141aa565b8015612e3e5780601f10612e1357610100808354040283529160200191612e3e565b820191906000526020600020905b815481529060010190602001808311612e2157829003601f168201915b5050505050905090565b60606000821415612e90576040518060400160405280600181526020017f30000000000000000000000000000000000000000000000000000000000000008152509050612fa4565b600082905060005b60008214612ec2578080612eab906147f8565b915050600a82612ebb9190614fb0565b9150612e98565b60008167ffffffffffffffff811115612ede57612edd613afa565b5b6040519080825280601f01601f191660200182016040528015612f105781602001600182028036833780820191505090505b5090505b60008514612f9d57600182612f299190614d77565b9150600a85612f389190614fe1565b6030612f449190614773565b60f81b818381518110612f5a57612f596147c9565b5b60200101907effffffffffffffffffffffffffffffffffffffffffffffffffffffffffffff1916908160001a905350600a85612f969190614fb0565b9450612f14565b8093505050505b919050565b505050565b600060019054906101000a900460ff1680612fd4575060008054906101000a900460ff16155b613013576040517f08c379a000000000000000000000000000000000000000000000000000000000815260040161300a90614724565b60405180910390fd5b60008060019054906101000a900460ff161590508015613063576001600060016101000a81548160ff02191690831515021790555060016000806101000a81548160ff0219169083151502179055505b80156130845760008060016101000a81548160ff0219169083151502179055505b50565b600060019054906101000a900460ff16806130ad575060008054906101000a900460ff16155b6130ec576040517f08c379a00000000000000000000000000000000000000000000000000000000081526004016130e390614724565b60405180910390fd5b60008060019054906101000a900460ff16159050801561313c576001600060016101000a81548160ff02191690831515021790555060016000806101000a81548160ff0219169083151502179055505b61314c613147612152565b612868565b801561316d5760008060016101000a81548160ff0219169083151502179055505b50565b600060019054906101000a900460ff1680613196575060008054906101000a900460ff16155b6131d5576040517f08c379a00000000000000000000000000000000000000000000000000000000081526004016131cc90614724565b60405180910390fd5b60008060019054906101000a900460ff161590508015613225576001600060016101000a81548160ff02191690831515021790555060016000806101000a81548160ff0219169083151502179055505b600160c981905550801561324e5760008060016101000a81548160ff0219169083151502179055505b50565b600060019054906101000a900460ff1680613277575060008054906101000a900460ff16155b6132b6576040517f08c379a00000000000000000000000000000000000000000000000000000000081526004016132ad90614724565b60405180910390fd5b60008060019054906101000a900460ff161590508015613306576001600060016101000a81548160ff02191690831515021790555060016000806101000a81548160ff0219169083151502179055505b80156133275760008060016101000a81548160ff0219169083151502179055505b50565b600060019054906101000a900460ff1680613350575060008054906101000a900460ff16155b61338f576040517f08c379a000000000000000000000000000000000000000000000000000000000815260040161338690614724565b60405180910390fd5b60008060019054906101000a900460ff1615905080156133df576001600060016101000a81548160ff02191690831515021790555060016000806101000a81548160ff0219169083151502179055505b82606590805190602001906133f592919061361c565b50816066908051906020019061340c92919061361c565b50801561342e5760008060016101000a81548160ff0219169083151502179055505b505050565b60006134548473ffffffffffffffffffffffffffffffffffffffff166135bb565b156135ae578373ffffffffffffffffffffffffffffffffffffffff1663150b7a0261347d612152565b8786866040518563ffffffff1660e01b815260040161349f9493929190615067565b6020604051808303816000875af19250505080156134db57506040513d601f19601f820116820180604052508101906134d891906150c8565b60015b61355e573d806000811461350b576040519150601f19603f3d011682016040523d82523d6000602084013e613510565b606091505b50600081511415613556576040517f08c379a000000000000000000000000000000000000000000000000000000000815260040161354d90614f61565b60405180910390fd5b805181602001fd5b63150b7a0260e01b7bffffffffffffffffffffffffffffffffffffffffffffffffffffffff1916817bffffffffffffffffffffffffffffffffffffffffffffffffffffffff1916149150506135b3565b600190505b949350505050565b600080823b905060008111915050919050565b6040518060c0016040528060008152602001600081526020016060815260200160608152602001600015158152602001600073ffffffffffffffffffffffffffffffffffffffff1681525090565b828054613628906141aa565b90600052602060002090601f01602090048101928261364a5760008555613691565b82601f1061366357805160ff1916838001178555613691565b82800160010185558215613691579182015b82811115613690578251825591602001919060010190613675565b5b50905061369e91906136a2565b5090565b5b808211156136bb5760008160009055506001016136a3565b5090565b6000604051905090565b600080fd5b600080fd5b60007fffffffff0000000000000000000000000000000000000000000000000000000082169050919050565b613708816136d3565b811461371357600080fd5b50565b600081359050613725816136ff565b92915050565b600060208284031215613741576137406136c9565b5b600061374f84828501613716565b91505092915050565b60008115159050919050565b61376d81613758565b82525050565b60006020820190506137886000830184613764565b92915050565b600081519050919050565b600082825260208201905092915050565b60005b838110156137c85780820151818401526020810190506137ad565b838111156137d7576000848401525b50505050565b6000601f19601f8301169050919050565b60006137f98261378e565b6138038185613799565b93506138138185602086016137aa565b61381c816137dd565b840191505092915050565b6000602082019050818103600083015261384181846137ee565b905092915050565b6000819050919050565b61385c81613849565b811461386757600080fd5b50565b60008135905061387981613853565b92915050565b600060208284031215613895576138946136c9565b5b60006138a38482850161386a565b91505092915050565b600073ffffffffffffffffffffffffffffffffffffffff82169050919050565b60006138d7826138ac565b9050919050565b6138e7816138cc565b82525050565b600060208201905061390260008301846138de565b92915050565b613911816138cc565b811461391c57600080fd5b50565b60008135905061392e81613908565b92915050565b6000806040838503121561394b5761394a6136c9565b5b60006139598582860161391f565b925050602061396a8582860161386a565b9150509250929050565b61397d81613849565b82525050565b600082825260208201905092915050565b600061399f8261378e565b6139a98185613983565b93506139b98185602086016137aa565b6139c2816137dd565b840191505092915050565b6139d681613758565b82525050565b6139e5816138cc565b82525050565b600060c083016000830151613a036000860182613974565b506020830151613a166020860182613974565b5060408301518482036040860152613a2e8282613994565b91505060608301518482036060860152613a488282613994565b9150506080830151613a5d60808601826139cd565b5060a0830151613a7060a08601826139dc565b508091505092915050565b60006020820190508181036000830152613a9581846139eb565b905092915050565b600080600060608486031215613ab657613ab56136c9565b5b6000613ac48682870161391f565b9350506020613ad58682870161391f565b9250506040613ae68682870161386a565b9150509250925092565b600080fd5b600080fd5b7f4e487b7100000000000000000000000000000000000000000000000000000000600052604160045260246000fd5b613b32826137dd565b810181811067ffffffffffffffff82111715613b5157613b50613afa565b5b80604052505050565b6000613b646136bf565b9050613b708282613b29565b919050565b600067ffffffffffffffff821115613b9057613b8f613afa565b5b613b99826137dd565b9050602081019050919050565b82818337600083830152505050565b6000613bc8613bc384613b75565b613b5a565b905082815260208101848484011115613be457613be3613af5565b5b613bef848285613ba6565b509392505050565b600082601f830112613c0c57613c0b613af0565b5b8135613c1c848260208601613bb5565b91505092915050565b613c2e81613758565b8114613c3957600080fd5b50565b600081359050613c4b81613c25565b92915050565b60008060008060808587031215613c6b57613c6a6136c9565b5b600085013567ffffffffffffffff811115613c8957613c886136ce565b5b613c9587828801613bf7565b945050602085013567ffffffffffffffff811115613cb657613cb56136ce565b5b613cc287828801613bf7565b9350506040613cd38782880161386a565b9250506060613ce487828801613c3c565b91505092959194509250565b613cf981613849565b82525050565b6000602082019050613d146000830184613cf0565b92915050565b600060208284031215613d3057613d2f6136c9565b5b600082013567ffffffffffffffff811115613d4e57613d4d6136ce565b5b613d5a84828501613bf7565b91505092915050565b60008060408385031215613d7a57613d796136c9565b5b6000613d888582860161386a565b9250506020613d998582860161391f565b9150509250929050565b600080600060608486031215613dbc57613dbb6136c9565b5b6000613dca8682870161386a565b9350506020613ddb86828701613c3c565b9250506040613dec8682870161386a565b9150509250925092565b600060208284031215613e0c57613e0b6136c9565b5b6000613e1a8482850161391f565b91505092915050565b600081519050919050565b600082825260208201905092915050565b6000819050602082019050919050565b600060c083016000830151613e676000860182613974565b506020830151613e7a6020860182613974565b5060408301518482036040860152613e928282613994565b91505060608301518482036060860152613eac8282613994565b9150506080830151613ec160808601826139cd565b5060a0830151613ed460a08601826139dc565b508091505092915050565b6000613eeb8383613e4f565b905092915050565b6000602082019050919050565b6000613f0b82613e23565b613f158185613e2e565b935083602082028501613f2785613e3f565b8060005b85811015613f635784840389528151613f448582613edf565b9450613f4f83613ef3565b925060208a01995050600181019050613f2b565b50829750879550505050505092915050565b60006020820190508181036000830152613f8f8184613f00565b905092915050565b60008060408385031215613fae57613fad6136c9565b5b6000613fbc8582860161391f565b9250506020613fcd85828601613c3c565b9150509250929050565b600067ffffffffffffffff821115613ff257613ff1613afa565b5b613ffb826137dd565b9050602081019050919050565b600061401b61401684613fd7565b613b5a565b90508281526020810184848401111561403757614036613af5565b5b614042848285613ba6565b509392505050565b600082601f83011261405f5761405e613af0565b5b813561406f848260208601614008565b91505092915050565b60008060008060808587031215614092576140916136c9565b5b60006140a08782880161391f565b94505060206140b18782880161391f565b93505060406140c28782880161386a565b925050606085013567ffffffffffffffff8111156140e3576140e26136ce565b5b6140ef8782880161404a565b91505092959194509250565b60008060408385031215614112576141116136c9565b5b60006141208582860161391f565b92505060206141318582860161391f565b9150509250929050565b60008060408385031215614152576141516136c9565b5b60006141608582860161386a565b92505060206141718582860161386a565b9150509250929050565b7f4e487b7100000000000000000000000000000000000000000000000000000000600052602260045260246000fd5b600060028204905060018216806141c257607f821691505b602082108114156141d6576141d561417b565b5b50919050565b7f4552433732313a20617070726f76656420717565727920666f72206e6f6e657860008201527f697374656e7420746f6b656e0000000000000000000000000000000000000000602082015250565b6000614238602c83613799565b9150614243826141dc565b604082019050919050565b600060208201905081810360008301526142678161422b565b9050919050565b7f4552433732313a20617070726f76616c20746f2063757272656e74206f776e6560008201527f7200000000000000000000000000000000000000000000000000000000000000602082015250565b60006142ca602183613799565b91506142d58261426e565b604082019050919050565b600060208201905081810360008301526142f9816142bd565b9050919050565b7f4552433732313a20617070726f76652063616c6c6572206973206e6f74206f7760008201527f6e6572206e6f7220617070726f76656420666f7220616c6c0000000000000000602082015250565b600061435c603883613799565b915061436782614300565b604082019050919050565b6000602082019050818103600083015261438b8161434f565b9050919050565b7f4552433732313a207472616e736665722063616c6c6572206973206e6f74206f60008201527f776e6572206e6f7220617070726f766564000000000000000000000000000000602082015250565b60006143ee603183613799565b91506143f982614392565b604082019050919050565b6000602082019050818103600083015261441d816143e1565b9050919050565b7f4f776e61626c653a2063616c6c6572206973206e6f7420746865206f776e6572600082015250565b600061445a602083613799565b915061446582614424565b602082019050919050565b600060208201905081810360008301526144898161444d565b9050919050565b7f4e6f7420617574686f72697a6564000000000000000000000000000000000000600082015250565b60006144c6600e83613799565b91506144d182614490565b602082019050919050565b600060208201905081810360008301526144f5816144b9565b9050919050565b7f4552433732313a206f776e657220717565727920666f72206e6f6e657869737460008201527f656e7420746f6b656e0000000000000000000000000000000000000000000000602082015250565b6000614558602983613799565b9150614563826144fc565b604082019050919050565b600060208201905081810360008301526145878161454b565b9050919050565b7f4552433732314d657461646174613a2053616c6520736574206f66206e6f6e6560008201527f78697374656e7420746f6b656e00000000000000000000000000000000000000602082015250565b60006145ea602d83613799565b91506145f58261458e565b604082019050919050565b60006020820190508181036000830152614619816145dd565b9050919050565b7f4552433732313a2062616c616e636520717565727920666f7220746865207a6560008201527f726f206164647265737300000000000000000000000000000000000000000000602082015250565b600061467c602a83613799565b915061468782614620565b604082019050919050565b600060208201905081810360008301526146ab8161466f565b9050919050565b7f496e697469616c697a61626c653a20636f6e747261637420697320616c72656160008201527f647920696e697469616c697a6564000000000000000000000000000000000000602082015250565b600061470e602e83613799565b9150614719826146b2565b604082019050919050565b6000602082019050818103600083015261473d81614701565b9050919050565b7f4e487b7100000000000000000000000000000000000000000000000000000000600052601160045260246000fd5b600061477e82613849565b915061478983613849565b9250827fffffffffffffffffffffffffffffffffffffffffffffffffffffffffffffffff038211156147be576147bd614744565b5b828201905092915050565b7f4e487b7100000000000000000000000000000000000000000000000000000000600052603260045260246000fd5b600061480382613849565b91507fffffffffffffffffffffffffffffffffffffffffffffffffffffffffffffffff82141561483657614835614744565b5b600182019050919050565b7f4552433732314d657461646174613a20507269636520717565727920666f722060008201527f6e6f6e6578697374656e7420746f6b656e000000000000000000000000000000602082015250565b600061489d603183613799565b91506148a882614841565b604082019050919050565b600060208201905081810360008301526148cc81614890565b9050919050565b7f5265656e7472616e637947756172643a207265656e7472616e742063616c6c00600082015250565b6000614909601f83613799565b9150614914826148d3565b602082019050919050565b60006020820190508181036000830152614938816148fc565b9050919050565b7f546f6b656e2069736e2774206f6e2073616c6500000000000000000000000000600082015250565b6000614975601383613799565b91506149808261493f565b602082019050919050565b600060208201905081810360008301526149a481614968565b9050919050565b7f4552433732314d657461646174613a2055524920717565727920666f72206e6f60008201527f6e6578697374656e7420746f6b656e0000000000000000000000000000000000602082015250565b6000614a07602f83613799565b9150614a12826149ab565b604082019050919050565b60006020820190508181036000830152614a36816149fa565b9050919050565b600081905092915050565b6000614a538261378e565b614a5d8185614a3d565b9350614a6d8185602086016137aa565b80840191505092915050565b6000614a858285614a48565b9150614a918284614a48565b91508190509392505050565b7f4552433732314d657461646174613a20507269636520736574206f66206e6f6e60008201527f6578697374656e7420746f6b656e000000000000000000000000000000000000602082015250565b6000614af9602e83613799565b9150614b0482614a9d565b604082019050919050565b60006020820190508181036000830152614b2881614aec565b9050919050565b7f4f776e61626c653a206e6577206f776e657220697320746865207a65726f206160008201527f6464726573730000000000000000000000000000000000000000000000000000602082015250565b6000614b8b602683613799565b9150614b9682614b2f565b604082019050919050565b60006020820190508181036000830152614bba81614b7e565b9050919050565b7f4552433732313a206f70657261746f7220717565727920666f72206e6f6e657860008201527f697374656e7420746f6b656e0000000000000000000000000000000000000000602082015250565b6000614c1d602c83613799565b9150614c2882614bc1565b604082019050919050565b60006020820190508181036000830152614c4c81614c10565b9050919050565b7f4552433732313a207472616e73666572206f6620746f6b656e2074686174206960008201527f73206e6f74206f776e0000000000000000000000000000000000000000000000602082015250565b6000614caf602983613799565b9150614cba82614c53565b604082019050919050565b60006020820190508181036000830152614cde81614ca2565b9050919050565b7f4552433732313a207472616e7366657220746f20746865207a65726f2061646460008201527f7265737300000000000000000000000000000000000000000000000000000000602082015250565b6000614d41602483613799565b9150614d4c82614ce5565b604082019050919050565b60006020820190508181036000830152614d7081614d34565b9050919050565b6000614d8282613849565b9150614d8d83613849565b925082821015614da057614d9f614744565b5b828203905092915050565b7f4552433732313a206d696e7420746f20746865207a65726f2061646472657373600082015250565b6000614de1602083613799565b9150614dec82614dab565b602082019050919050565b60006020820190508181036000830152614e1081614dd4565b9050919050565b7f4552433732313a20746f6b656e20616c7265616479206d696e74656400000000600082015250565b6000614e4d601c83613799565b9150614e5882614e17565b602082019050919050565b60006020820190508181036000830152614e7c81614e40565b9050919050565b7f4552433732313a20617070726f766520746f2063616c6c657200000000000000600082015250565b6000614eb9601983613799565b9150614ec482614e83565b602082019050919050565b60006020820190508181036000830152614ee881614eac565b9050919050565b7f4552433732313a207472616e7366657220746f206e6f6e20455243373231526560008201527f63656976657220696d706c656d656e7465720000000000000000000000000000602082015250565b6000614f4b603283613799565b9150614f5682614eef565b604082019050919050565b60006020820190508181036000830152614f7a81614f3e565b9050919050565b7f4e487b7100000000000000000000000000000000000000000000000000000000600052601260045260246000fd5b6000614fbb82613849565b9150614fc683613849565b925082614fd657614fd5614f81565b5b828204905092915050565b6000614fec82613849565b9150614ff783613849565b92508261500757615006614f81565b5b828206905092915050565b600081519050919050565b600082825260208201905092915050565b600061503982615012565b615043818561501d565b93506150538185602086016137aa565b61505c816137dd565b840191505092915050565b600060808201905061507c60008301876138de565b61508960208301866138de565b6150966040830185613cf0565b81810360608301526150a8818461502e565b905095945050505050565b6000815190506150c2816136ff565b92915050565b6000602082840312156150de576150dd6136c9565b5b60006150ec848285016150b3565b9150509291505056fea26469706673582212202e1142408297c2c765c65d202bc4516407dc9b425ecc6cc53297cd94b403b70b64736f6c634300080a0033",
  "immutableReferences": {},
  "source": "// SPDX-License-Identifier: MIT\npragma solidity >=0.4.22 <0.9.0;\npragma experimental ABIEncoderV2;\n\nimport \"@openzeppelin/contracts-upgradeable/token/ERC721/ERC721Upgradeable.sol\";\nimport \"@openzeppelin/contracts-upgradeable/access/OwnableUpgradeable.sol\";\nimport \"@openzeppelin/contracts-upgradeable/security/ReentrancyGuardUpgradeable.sol\";\nimport \"@openzeppelin/contracts-upgradeable/utils/CountersUpgradeable.sol\";\n\ncontract newCompany is ERC721Upgradeable, OwnableUpgradeable, ReentrancyGuardUpgradeable {\n    using CountersUpgradeable for CountersUpgradeable.Counter;\n    CountersUpgradeable.Counter private _tokenIds;\n\n    mapping (uint256 => TokenMeta) private _tokenMeta;\n\n    string baseURI;\n\n    struct TokenMeta {\n        uint256 id;\n        uint256 price;\n        string name;\n        string uri;\n        bool sale;\n        address user;\n    }\n\n\n    function initialize() public initializer {\n        OwnableUpgradeable.__Ownable_init();\n        ReentrancyGuardUpgradeable.__ReentrancyGuard_init();\n        ERC721Upgradeable.__ERC721_init(\"COMPANY\", \"CMP \");\n        setBaseURI(\"your uri\");\n    }\n\n\n    function _baseURI() internal view override virtual returns (string memory) {\n        return baseURI;\n    }\n\n    function setBaseURI(string memory _newBaseURI) public virtual onlyOwner {\n        baseURI = _newBaseURI;\n    }\n\n    function getAllOnSale () public view virtual returns( TokenMeta[] memory ) {\n        TokenMeta[] memory tokensOnSale = new TokenMeta[](_tokenIds.current());\n        uint256 counter = 0;\n\n        for(uint i = 1; i < _tokenIds.current() + 1; i++) {\n            if(_tokenMeta[i].sale == true) {\n                tokensOnSale[counter] = _tokenMeta[i];\n                counter++;\n            }\n        }\n        return tokensOnSale;\n    }\n\n\n    function getAllTokenUser (address user) public view virtual returns( TokenMeta[] memory ) {\n        TokenMeta[] memory tokensOfUser = new TokenMeta[](_tokenIds.current());\n        uint256 counter = 0;\n\n        for(uint i = 1; i < _tokenIds.current() + 1; i++) {\n            if(_tokenMeta[i].user == user) {\n                tokensOfUser[counter] = _tokenMeta[i];\n                counter++;\n            }\n        }\n        return tokensOfUser;\n    }\n\n\n    function tokenSale(uint256 tokenId) public view virtual returns (bool) {\n        require(_exists(tokenId), \"ERC721Metadata: Price query for nonexistent token\");\n        return _tokenMeta[tokenId].sale;\n    }\n\n    /**\n     * Requirements:\n     * `tokenId` must exist\n     * `price` must be more than 0\n     * `owner` must the msg.owner\n     */\n    function setTokenSale(uint256 _tokenId, bool _sale, uint256 _price) public {\n        require(_exists(_tokenId), \"ERC721Metadata: Sale set of nonexistent token\");\n        require(_price > 0);\n        require(ownerOf(_tokenId) == _msgSender());\n\n        _tokenMeta[_tokenId].sale = _sale;\n        setTokenPrice(_tokenId, _price);\n    }\n\n    /**\n     * Requirements:\n     * `tokenId` must exist\n     * `owner` must the msg.owner\n     */\n    function setTokenPrice(uint256 _tokenId, uint256 _price) public {\n        require(_exists(_tokenId), \"ERC721Metadata: Price set of nonexistent token\");\n        require(ownerOf(_tokenId) == _msgSender());\n        _tokenMeta[_tokenId].price = _price;\n    }\n\n    function tokenPrice(uint256 tokenId) public view virtual returns (uint256) {\n        require(_exists(tokenId), \"ERC721Metadata: Price query for nonexistent token\");\n        return _tokenMeta[tokenId].price;\n    }\n\n    /**\n     * @dev sets token meta\n     * @param _tokenId uint256 token ID (token number)\n     * @param _meta TokenMeta\n     *\n     * Requirements:\n     * `tokenId` must exist\n     * `owner` must the msg.owner\n     */\n    function _setTokenMeta(uint256 _tokenId, TokenMeta memory _meta) private {\n        require(_exists(_tokenId));\n        require(ownerOf(_tokenId) == _msgSender());\n        _tokenMeta[_tokenId] = _meta;\n    }\n\n    function tokenMeta(uint256 _tokenId) public view returns (TokenMeta memory) {\n        require(_exists(_tokenId));\n        return _tokenMeta[_tokenId];\n    }\n\n\n    function purchaseToken(uint256 _tokenId) public payable nonReentrant {\n        require(msg.sender != address(0) && msg.sender != ownerOf(_tokenId));\n        require(msg.value >= _tokenMeta[_tokenId].price);\n        require(_tokenMeta[_tokenId].sale, \"Token isn't on sale\");\n        address  tokenSeller = ownerOf(_tokenId);\n\n        payable(tokenSeller).transfer(msg.value);\n\n        setApprovalForAll(tokenSeller, true);\n        _transfer(tokenSeller, msg.sender, _tokenId);\n        _tokenMeta[_tokenId].sale = false;\n        _tokenMeta[_tokenId].user = msg.sender;\n    }\n\n    function newToken(\n        string memory _tokenURI,\n        string memory _name,\n        uint256 _price,\n        bool _sale\n    )\n        public\n        onlyOwner\n        returns (uint256)\n    {\n        require(_price > 0);\n\n        _tokenIds.increment();\n\n        uint256 newItemId = _tokenIds.current();\n        _mint(msg.sender, newItemId);\n\n        TokenMeta memory meta = TokenMeta(newItemId, _price, _name, _tokenURI, _sale, msg.sender);\n        _setTokenMeta(newItemId, meta);\n\n\n        return newItemId;\n    }\n\n    function giftToken(uint256 idToken, address user) public {\n        require(ownerOf(idToken) == msg.sender, \"Not authorized\");\n        _transfer(msg.sender, user, idToken);\n        _tokenMeta[idToken].user = user;\n        _tokenMeta[idToken].sale = false;\n\n    }\n}",
  "sourcePath": "/home/federico26/Start2impact/neWeb3/Dapp/app/truffle/contracts/newCompany.sol",
  "compiler": {
    "name": "solc",
    "version": "0.8.10+commit.fc410830.Emscripten.clang"
  },
  "schemaVersion": "3.4.1",
  "updatedAt": "2021-12-06T10:41:58.673Z",
  "networkType": "ethereum",
  "devdoc": {
    "kind": "dev",
    "methods": {
      "approve(address,uint256)": {
        "details": "See {IERC721-approve}."
      },
      "balanceOf(address)": {
        "details": "See {IERC721-balanceOf}."
      },
      "getApproved(uint256)": {
        "details": "See {IERC721-getApproved}."
      },
      "isApprovedForAll(address,address)": {
        "details": "See {IERC721-isApprovedForAll}."
      },
      "name()": {
        "details": "See {IERC721Metadata-name}."
      },
      "owner()": {
        "details": "Returns the address of the current owner."
      },
      "ownerOf(uint256)": {
        "details": "See {IERC721-ownerOf}."
      },
      "renounceOwnership()": {
        "details": "Leaves the contract without owner. It will not be possible to call `onlyOwner` functions anymore. Can only be called by the current owner. NOTE: Renouncing ownership will leave the contract without an owner, thereby removing any functionality that is only available to the owner."
      },
      "safeTransferFrom(address,address,uint256)": {
        "details": "See {IERC721-safeTransferFrom}."
      },
      "safeTransferFrom(address,address,uint256,bytes)": {
        "details": "See {IERC721-safeTransferFrom}."
      },
      "setApprovalForAll(address,bool)": {
        "details": "See {IERC721-setApprovalForAll}."
      },
      "supportsInterface(bytes4)": {
        "details": "See {IERC165-supportsInterface}."
      },
      "symbol()": {
        "details": "See {IERC721Metadata-symbol}."
      },
      "tokenURI(uint256)": {
        "details": "See {IERC721Metadata-tokenURI}."
      },
      "transferFrom(address,address,uint256)": {
        "details": "See {IERC721-transferFrom}."
      },
      "transferOwnership(address)": {
        "details": "Transfers ownership of the contract to a new account (`newOwner`). Can only be called by the current owner."
      }
    },
    "version": 1
  },
  "userdoc": {
    "kind": "user",
    "methods": {
      "setTokenPrice(uint256,uint256)": {
        "notice": "Requirements: `tokenId` must exist `owner` must the msg.owner"
      },
      "setTokenSale(uint256,bool,uint256)": {
        "notice": "Requirements: `tokenId` must exist `price` must be more than 0 `owner` must the msg.owner"
      }
    },
    "version": 1
  }
}